{
  "contractName": "OpenBank",
  "abi": [
    {
      "constant": true,
      "inputs": [
        {
          "name": "",
          "type": "address"
        }
      ],
      "name": "customers",
      "outputs": [
        {
          "name": "",
          "type": "uint256"
        }
      ],
      "payable": false,
      "stateMutability": "view",
      "type": "function"
    },
    {
      "constant": false,
      "inputs": [],
      "name": "deposit",
      "outputs": [],
      "payable": true,
      "stateMutability": "payable",
      "type": "function"
    },
    {
      "constant": true,
      "inputs": [],
      "name": "getAccountBalance",
      "outputs": [
        {
          "name": "_balance",
          "type": "uint256"
        }
      ],
      "payable": false,
      "stateMutability": "view",
      "type": "function"
    },
    {
      "constant": false,
      "inputs": [
        {
          "name": "_amount",
          "type": "uint256"
        }
      ],
      "name": "withdraw",
      "outputs": [],
      "payable": false,
      "stateMutability": "nonpayable",
      "type": "function"
    }
  ],
  "bytecode": "0x608060405234801561001057600080fd5b5061036a806100206000396000f300608060405260043610610062576000357c0100000000000000000000000000000000000000000000000000000000900463ffffffff1680632e1a7d4d14610067578063336989ae146100945780636896fabf146100eb578063d0e30db014610116575b600080fd5b34801561007357600080fd5b5061009260048036038101908080359060200190929190505050610120565b005b3480156100a057600080fd5b506100d5600480360381019080803573ffffffffffffffffffffffffffffffffffffffff169060200190929190505050610292565b6040518082815260200191505060405180910390f35b3480156100f757600080fd5b506101006102aa565b6040518082815260200191505060405180910390f35b61011e6102f0565b005b806000803373ffffffffffffffffffffffffffffffffffffffff1673ffffffffffffffffffffffffffffffffffffffff16815260200190815260200160002054101515156101fc576040517f08c379a00000000000000000000000000000000000000000000000000000000081526004018080602001828103825260228152602001807f6e6f7420656e6f7567682065746865722073746f72656420696e206163636f7581526020017f6e7400000000000000000000000000000000000000000000000000000000000081525060400191505060405180910390fd5b806000803373ffffffffffffffffffffffffffffffffffffffff1673ffffffffffffffffffffffffffffffffffffffff168152602001908152602001600020600082825403925050819055503373ffffffffffffffffffffffffffffffffffffffff166108fc829081150290604051600060405180830381858888f1935050505015801561028e573d6000803e3d6000fd5b5050565b60006020528060005260406000206000915090505481565b60008060003373ffffffffffffffffffffffffffffffffffffffff1673ffffffffffffffffffffffffffffffffffffffff16815260200190815260200160002054905090565b346000803373ffffffffffffffffffffffffffffffffffffffff1673ffffffffffffffffffffffffffffffffffffffff168152602001908152602001600020600082825401925050819055505600a165627a7a72305820da1b797d08cc5a5fb76fb0c0f6513a7d46f390f3167c79feb599e43c6d169ab80029",
  "source": "pragma solidity ^0.4.2;\n\n/*\n    Let's improve our bank to overcome its security issue. This time, each\n    customer has an own account balance that is mapped to the customer address.\n    In this way a customer can only deposit ether into his account, and\n    withdraw from his account. NO MORE STEALING!!!\n*/\n\ncontract OpenBank {\n\n    // Create a mapping that stores the address and the account balance for\n    // each customer\n    mapping(address => uint) public customers;\n\n    function deposit() public payable {\n        // (!) Increase the account balance of the sender in the customers mapping\n        customers[msg.sender] += msg.value;\n    }\n\n    // (!) return the account balance of the sender from the customers mapping\n    function getAccountBalance() public view returns(uint _balance) {\n        return customers[msg.sender];\n    }\n\n    function withdraw(uint _amount) public {\n        /*\n        (!) Prevent someone from withdrawing more than he/she previoulsy\n            deposited in the bank. Check the customers mapping whether enough\n            ether are available and revert the transaction if not.\n        (!) Decrease the account balance of the sender in the customers mapping\n        */\n        require(\n            customers[msg.sender] >= _amount,\n            \"not enough ether stored in account\"\n        );\n        customers[msg.sender] -= _amount;\n        // Finally, transfer the amount of ether to the sender's address\n        msg.sender.transfer(_amount);\n    }\n}\n",
  "sourcePath": "/Users/manuelannabring/projects/ethereum-basics/solution/01_Bank/contracts/OpenBank.sol",
  "compiler": {
    "name": "solc",
    "version": "0.4.24+commit.e67f0147.Emscripten.clang"
  },
  "schemaVersion": "2.0.1",
  "updatedAt": "2018-12-12T14:38:26.324Z"
}