{
  "contractName": "OpenBank",
  "abi": [
    {
      "constant": true,
      "inputs": [
        {
          "name": "",
          "type": "address"
        }
      ],
      "name": "customers",
      "outputs": [
        {
          "name": "",
          "type": "uint256"
        }
      ],
      "payable": false,
      "stateMutability": "view",
      "type": "function"
    },
    {
      "constant": false,
      "inputs": [],
      "name": "deposit",
      "outputs": [],
      "payable": true,
      "stateMutability": "payable",
      "type": "function"
    },
    {
      "constant": false,
      "inputs": [
        {
          "name": "_amount",
          "type": "uint256"
        }
      ],
      "name": "withdraw",
      "outputs": [],
      "payable": false,
      "stateMutability": "nonpayable",
      "type": "function"
    }
  ],
  "bytecode": "0x608060405234801561001057600080fd5b5061025f806100206000396000f300608060405260043610610057576000357c0100000000000000000000000000000000000000000000000000000000900463ffffffff1680632e1a7d4d1461005c578063336989ae14610089578063d0e30db0146100e0575b600080fd5b34801561006857600080fd5b50610087600480360381019080803590602001909291905050506100ea565b005b34801561009557600080fd5b506100ca600480360381019080803573ffffffffffffffffffffffffffffffffffffffff1690602001909291905050506101cd565b6040518082815260200191505060405180910390f35b6100e86101e5565b005b806000803373ffffffffffffffffffffffffffffffffffffffff1673ffffffffffffffffffffffffffffffffffffffff168152602001908152602001600020541015151561013757600080fd5b806000803373ffffffffffffffffffffffffffffffffffffffff1673ffffffffffffffffffffffffffffffffffffffff168152602001908152602001600020600082825403925050819055503373ffffffffffffffffffffffffffffffffffffffff166108fc829081150290604051600060405180830381858888f193505050501580156101c9573d6000803e3d6000fd5b5050565b60006020528060005260406000206000915090505481565b346000803373ffffffffffffffffffffffffffffffffffffffff1673ffffffffffffffffffffffffffffffffffffffff168152602001908152602001600020600082825401925050819055505600a165627a7a72305820490b0510b8889e87baff024c647f65bf5a95ce4b86b0aee97c7b74756c9c42e70029",
  "source": "pragma solidity ^0.4.2;\n\n/*\n    This bank is open for everyone to deposit funds. Unlike the SimpleBank,\n    a customer can only withdraw as much as he/she put into the bank beforehand.\n*/\n\ncontract OpenBank {\n\n    // Create a mapping that stores the address and the account balance for\n    // each customer\n    mapping(address => uint) public customers;\n\n    function deposit() public payable {\n        // increase the account balance of the sender in the customers mapping\n        customers[msg.sender] += msg.value;\n    }\n\n    function withdraw(uint _amount) public {\n        /*\n        (!) Prevent someone from withdrawing more than he/she previoulsy\n            deposited in the bank. Check the customers mapping whether enough\n            ether are available and revert if not.\n        */\n        require(customers[msg.sender] >= _amount);\n        // (!) Decrease the account balance of the sender in the customers mapping\n        customers[msg.sender] -= _amount;\n        // Finally, transfer the amount of ether to the sender's address\n        msg.sender.transfer(_amount);\n    }\n}\n",
  "sourcePath": "/Users/manuelannabring/projects/ethereum-basics/solution/01_Bank/contracts/OpenBank.sol",
  "compiler": {
    "name": "solc",
    "version": "0.4.24+commit.e67f0147.Emscripten.clang"
  },
  "schemaVersion": "2.0.1",
  "updatedAt": "2018-12-11T15:02:45.352Z"
}