{
  "contractName": "PrivateBank",
  "abi": [
    {
      "constant": true,
      "inputs": [],
      "name": "owner",
      "outputs": [
        {
          "name": "",
          "type": "address"
        }
      ],
      "payable": false,
      "stateMutability": "view",
      "type": "function"
    },
    {
      "constant": true,
      "inputs": [
        {
          "name": "",
          "type": "address"
        }
      ],
      "name": "registered",
      "outputs": [
        {
          "name": "",
          "type": "bool"
        }
      ],
      "payable": false,
      "stateMutability": "view",
      "type": "function"
    },
    {
      "inputs": [],
      "payable": false,
      "stateMutability": "nonpayable",
      "type": "constructor"
    },
    {
      "constant": false,
      "inputs": [
        {
          "name": "_customer",
          "type": "address"
        }
      ],
      "name": "registerNewCustomer",
      "outputs": [],
      "payable": false,
      "stateMutability": "nonpayable",
      "type": "function"
    },
    {
      "constant": false,
      "inputs": [],
      "name": "deposit",
      "outputs": [],
      "payable": true,
      "stateMutability": "payable",
      "type": "function"
    },
    {
      "constant": true,
      "inputs": [],
      "name": "getAccountBalance",
      "outputs": [
        {
          "name": "_balance",
          "type": "uint256"
        }
      ],
      "payable": false,
      "stateMutability": "view",
      "type": "function"
    },
    {
      "constant": false,
      "inputs": [
        {
          "name": "_amount",
          "type": "uint256"
        }
      ],
      "name": "withdraw",
      "outputs": [],
      "payable": false,
      "stateMutability": "nonpayable",
      "type": "function"
    }
  ],
  "bytecode": "0x608060405234801561001057600080fd5b50336000806101000a81548173ffffffffffffffffffffffffffffffffffffffff021916908373ffffffffffffffffffffffffffffffffffffffff160217905550610868806100606000396000f300608060405260043610610078576000357c0100000000000000000000000000000000000000000000000000000000900463ffffffff1680632499d2b11461007d5780632e1a7d4d146100c05780636896fabf146100ed5780638da5cb5b14610118578063b2dd5c071461016f578063d0e30db0146101ca575b600080fd5b34801561008957600080fd5b506100be600480360381019080803573ffffffffffffffffffffffffffffffffffffffff1690602001909291905050506101d4565b005b3480156100cc57600080fd5b506100eb600480360381019080803590602001909291905050506103bb565b005b3480156100f957600080fd5b506101026105d1565b6040518082815260200191505060405180910390f35b34801561012457600080fd5b5061012d6106e0565b604051808273ffffffffffffffffffffffffffffffffffffffff1673ffffffffffffffffffffffffffffffffffffffff16815260200191505060405180910390f35b34801561017b57600080fd5b506101b0600480360381019080803573ffffffffffffffffffffffffffffffffffffffff169060200190929190505050610705565b604051808215151515815260200191505060405180910390f35b6101d2610725565b005b6000809054906101000a900473ffffffffffffffffffffffffffffffffffffffff1673ffffffffffffffffffffffffffffffffffffffff163373ffffffffffffffffffffffffffffffffffffffff16141515610298576040517f08c379a000000000000000000000000000000000000000000000000000000000815260040180806020018281038252600e8152602001807f6e6f7420617574686f72697a656400000000000000000000000000000000000081525060200191505060405180910390fd5b60001515600260008373ffffffffffffffffffffffffffffffffffffffff1673ffffffffffffffffffffffffffffffffffffffff16815260200190815260200160002060009054906101000a900460ff161515141515610360576040517f08c379a00000000000000000000000000000000000000000000000000000000081526004018080602001828103825260128152602001807f616c72656164792072656769737465726564000000000000000000000000000081525060200191505060405180910390fd5b6001600260008373ffffffffffffffffffffffffffffffffffffffff1673ffffffffffffffffffffffffffffffffffffffff16815260200190815260200160002060006101000a81548160ff02191690831515021790555050565b60011515600260003373ffffffffffffffffffffffffffffffffffffffff1673ffffffffffffffffffffffffffffffffffffffff16815260200190815260200160002060009054906101000a900460ff161515141515610483576040517f08c379a000000000000000000000000000000000000000000000000000000000815260040180806020018281038252600e8152602001807f6e6f74207265676973746572656400000000000000000000000000000000000081525060200191505060405180910390fd5b80600160003373ffffffffffffffffffffffffffffffffffffffff1673ffffffffffffffffffffffffffffffffffffffff168152602001908152602001600020541015151561053a576040517f08c379a000000000000000000000000000000000000000000000000000000000815260040180806020018281038252601b8152602001807f6e6f7420656e6f75676820657468657220696e206163636f756e74000000000081525060200191505060405180910390fd5b80600160003373ffffffffffffffffffffffffffffffffffffffff1673ffffffffffffffffffffffffffffffffffffffff168152602001908152602001600020600082825403925050819055503373ffffffffffffffffffffffffffffffffffffffff166108fc829081150290604051600060405180830381858888f193505050501580156105cd573d6000803e3d6000fd5b5050565b600060011515600260003373ffffffffffffffffffffffffffffffffffffffff1673ffffffffffffffffffffffffffffffffffffffff16815260200190815260200160002060009054906101000a900460ff16151514151561069b576040517f08c379a000000000000000000000000000000000000000000000000000000000815260040180806020018281038252600e8152602001807f6e6f74207265676973746572656400000000000000000000000000000000000081525060200191505060405180910390fd5b600160003373ffffffffffffffffffffffffffffffffffffffff1673ffffffffffffffffffffffffffffffffffffffff16815260200190815260200160002054905090565b6000809054906101000a900473ffffffffffffffffffffffffffffffffffffffff1681565b60026020528060005260406000206000915054906101000a900460ff1681565b60011515600260003373ffffffffffffffffffffffffffffffffffffffff1673ffffffffffffffffffffffffffffffffffffffff16815260200190815260200160002060009054906101000a900460ff1615151415156107ed576040517f08c379a000000000000000000000000000000000000000000000000000000000815260040180806020018281038252600e8152602001807f6e6f74207265676973746572656400000000000000000000000000000000000081525060200191505060405180910390fd5b34600160003373ffffffffffffffffffffffffffffffffffffffff1673ffffffffffffffffffffffffffffffffffffffff168152602001908152602001600020600082825401925050819055505600a165627a7a72305820ce329d06697cc6a1f7bd3be5495291fdbceb336f053caaec6bd2547a1efc47200029",
  "source": "pragma solidity ^0.4.2;\n\n/*\n    As soon as you deploy a smart contract to the network you loose control\n    over it. Well, there are options to prevent that. In this example we build\n    a bank where customer have to registered by the bank owner before they can\n    deposit and withdraw ether.\n*/\n\ncontract PrivateBank {\n\n    // Store the address of the bank owner\n    address public owner;\n\n    // Mapping that stores the address and balance of a customer\n    mapping(address => uint) customers;\n\n    // (!) Create a second mapping that stores the address and the state of\n    // registration for each customer\n    mapping(address => bool) public registered;\n\n    /*\n        (!) Create a constructor that sets the address of the bank owner. In\n        other words the address of the one who deploys the contract.\n    */\n    constructor() public {\n        owner = msg.sender;\n    }\n\n    function registerNewCustomer(address _customer) public {\n        // (!) require that only the owner can register a new customer\n        require(msg.sender == owner, 'not authorized');\n        // (!) require that the customer is not registered yet\n        require(registered[_customer] == false, 'already registered');\n        // (!) store the new customer in the registered mapping\n        registered[_customer] = true;\n    }\n\n    function deposit() public payable {\n        // (!) Require that the sender is registered as a customer\n        require(registered[msg.sender] == true, 'not registered');\n        customers[msg.sender] += msg.value;\n    }\n\n    function getAccountBalance() public view returns(uint _balance) {\n        // (!) require that the sender is registered as a customer\n        require(registered[msg.sender] == true, 'not registered');\n        return customers[msg.sender];\n    }\n\n    function withdraw(uint _amount) public {\n        // (!) require that the sender is registered as a customer\n        require(registered[msg.sender] == true, 'not registered');\n        require(\n            customers[msg.sender] >= _amount,\n            'not enough ether in account'\n        );\n        customers[msg.sender] -= _amount;\n        msg.sender.transfer(_amount);\n    }\n}\n",
  "sourcePath": "/Users/manuelannabring/projects/ethereum-basics/solution/01_Bank/contracts/PrivateBank.sol",
  "compiler": {
    "name": "solc",
    "version": "0.4.24+commit.e67f0147.Emscripten.clang"
  },
  "schemaVersion": "2.0.1",
  "updatedAt": "2018-12-12T14:38:26.326Z"
}