{
  "contractName": "SimpleBank",
  "abi": [
    {
      "constant": false,
      "inputs": [],
      "name": "deposit",
      "outputs": [],
      "payable": true,
      "stateMutability": "payable",
      "type": "function"
    },
    {
      "constant": false,
      "inputs": [
        {
          "name": "_amount",
          "type": "uint256"
        }
      ],
      "name": "withdraw",
      "outputs": [],
      "payable": false,
      "stateMutability": "nonpayable",
      "type": "function"
    }
  ],
  "bytecode": "0x608060405234801561001057600080fd5b5061018f806100206000396000f30060806040526004361061004c576000357c0100000000000000000000000000000000000000000000000000000000900463ffffffff1680632e1a7d4d14610051578063d0e30db01461007e575b600080fd5b34801561005d57600080fd5b5061007c60048036038101908080359060200190929190505050610088565b005b610086610161565b005b3073ffffffffffffffffffffffffffffffffffffffff16318111151515610117576040517f08c379a00000000000000000000000000000000000000000000000000000000081526004018080602001828103825260188152602001807f6e6f7420656e6f7567682066756e647320696e2062616e6b000000000000000081525060200191505060405180910390fd5b3373ffffffffffffffffffffffffffffffffffffffff166108fc829081150290604051600060405180830381858888f1935050505015801561015d573d6000803e3d6000fd5b5050565b5600a165627a7a723058204c8c41c4574cffdab0d2c38a79c23851969df1e5a88d143d8169aecdebf2b4ae0029",
  "source": "pragma solidity ^0.4.2;\n\n/*\n    This is a very simple bank. Everyone is allowed to deposit ether into\n    the bank. Everyone is allowed to withdraw available ether from the bank.\n*/\n\ncontract SimpleBank {\n\n    // (!) make the function payable so that it can receive ether\n    function deposit() public payable {}\n\n    function withdraw(uint _amount) public {\n        // (!) require that enough ether are available for transfering\n        require(_amount <= address(this).balance, \"not enough funds in bank\");\n        // (!) transfer the amount to the sender of the transaction\n        msg.sender.transfer(_amount);\n    }\n}\n",
  "sourcePath": "/Users/manuelannabring/projects/ethereum-basics/payment/99_Solution/01_Bank/contracts/SimpleBank.sol",
  "compiler": {
    "name": "solc",
    "version": "0.4.24+commit.e67f0147.Emscripten.clang"
  },
  "schemaVersion": "2.0.1",
  "updatedAt": "2018-12-11T11:55:29.412Z"
}