{
  "contractName": "Bank",
  "abi": [
    {
      "constant": false,
      "inputs": [],
      "name": "deposit",
      "outputs": [],
      "payable": true,
      "stateMutability": "payable",
      "type": "function"
    },
    {
      "constant": false,
      "inputs": [
        {
          "name": "_amount",
          "type": "uint256"
        }
      ],
      "name": "withdraw",
      "outputs": [],
      "payable": false,
      "stateMutability": "nonpayable",
      "type": "function"
    }
  ],
  "bytecode": "0x608060405234801561001057600080fd5b5061018f806100206000396000f30060806040526004361061004c576000357c0100000000000000000000000000000000000000000000000000000000900463ffffffff1680632e1a7d4d14610051578063d0e30db01461007e575b600080fd5b34801561005d57600080fd5b5061007c60048036038101908080359060200190929190505050610088565b005b610086610161565b005b3073ffffffffffffffffffffffffffffffffffffffff16318111151515610117576040517f08c379a000000000000000000000000000000000000000000000000000000000815260040180806020018281038252600f8152602001807f6e6f20656e6f7567682066756e6473000000000000000000000000000000000081525060200191505060405180910390fd5b3373ffffffffffffffffffffffffffffffffffffffff166108fc829081150290604051600060405180830381858888f1935050505015801561015d573d6000803e3d6000fd5b5050565b5600a165627a7a7230582055533f480678614ab80cb6f6f849a90e7d0af8e5fed9d4ce1a522405a058bd3a0029",
  "source": "pragma solidity ^0.4.2;\n\ncontract Bank {\n\n    function deposit() public payable {}\n\n    function withdraw (uint _amount) public {\n        require(_amount <= address(this).balance, \"no enough funds\");\n        msg.sender.transfer(_amount);\n    }\n}\n",
  "sourcePath": "/Users/manuelannabring/projects/ethereum-basics/payment/contracts/Bank.sol",
  "compiler": {
    "name": "solc",
    "version": "0.4.24+commit.e67f0147.Emscripten.clang"
  },
  "schemaVersion": "2.0.1",
  "updatedAt": "2018-12-10T15:16:17.018Z"
}