{
  "contractName": "SimpleBank",
  "abi": [
    {
      "constant": false,
      "inputs": [],
      "name": "deposit",
      "outputs": [],
      "payable": false,
      "stateMutability": "nonpayable",
      "type": "function"
    },
    {
      "constant": false,
      "inputs": [],
      "name": "withdraw",
      "outputs": [],
      "payable": false,
      "stateMutability": "nonpayable",
      "type": "function"
    }
  ],
  "bytecode": "0x608060405234801561001057600080fd5b5060a68061001f6000396000f3006080604052600436106049576000357c0100000000000000000000000000000000000000000000000000000000900463ffffffff1680633ccfd60b14604e578063d0e30db0146062575b600080fd5b348015605957600080fd5b5060606076565b005b348015606d57600080fd5b5060746078565b005b565b5600a165627a7a72305820256a6e906729be43fdcf94f9474017c2c5a61e8d2f49e8d2acdc70071eda199b0029",
  "source": "pragma solidity ^0.4.2;\n\n/*\n    This is a very simple bank. Everyone is allowed to deposit ether into\n    the bank. Everyone is allowed to withdraw available ether from the bank.\n*/\n\ncontract SimpleBank {\n\n    // (!) make the function payable so that it can receive ether\n    function deposit() public /* ... */ {}\n\n    function withdraw(/* ... */) public {\n        // (!) require that enough ether are available for transfering\n        // (!) transfer the amount to the sender of the transaction\n        /* ... */\n    }\n}\n",
  "sourcePath": "/Users/manuelannabring/projects/ethereum-basics/payment/01_Bank/contracts/SimpleBank.sol",
  "compiler": {
    "name": "solc",
    "version": "0.4.24+commit.e67f0147.Emscripten.clang"
  },
  "schemaVersion": "2.0.1",
  "updatedAt": "2018-12-11T10:35:34.383Z"
}