{
  "contractName": "Coinflip",
  "abi": [
    {
      "constant": true,
      "inputs": [],
      "name": "FACTOR",
      "outputs": [
        {
          "name": "",
          "type": "uint256"
        }
      ],
      "payable": false,
      "stateMutability": "view",
      "type": "function"
    },
    {
      "constant": true,
      "inputs": [],
      "name": "player2",
      "outputs": [
        {
          "name": "",
          "type": "address"
        }
      ],
      "payable": false,
      "stateMutability": "view",
      "type": "function"
    },
    {
      "constant": true,
      "inputs": [],
      "name": "result",
      "outputs": [
        {
          "name": "",
          "type": "uint256"
        }
      ],
      "payable": false,
      "stateMutability": "view",
      "type": "function"
    },
    {
      "constant": true,
      "inputs": [],
      "name": "seedBlockNumber",
      "outputs": [
        {
          "name": "",
          "type": "uint256"
        }
      ],
      "payable": false,
      "stateMutability": "view",
      "type": "function"
    },
    {
      "constant": true,
      "inputs": [],
      "name": "amount",
      "outputs": [
        {
          "name": "",
          "type": "uint256"
        }
      ],
      "payable": false,
      "stateMutability": "view",
      "type": "function"
    },
    {
      "constant": true,
      "inputs": [],
      "name": "player1",
      "outputs": [
        {
          "name": "",
          "type": "address"
        }
      ],
      "payable": false,
      "stateMutability": "view",
      "type": "function"
    },
    {
      "constant": true,
      "inputs": [],
      "name": "blockHash",
      "outputs": [
        {
          "name": "",
          "type": "uint256"
        }
      ],
      "payable": false,
      "stateMutability": "view",
      "type": "function"
    },
    {
      "constant": false,
      "inputs": [],
      "name": "makeBet",
      "outputs": [],
      "payable": true,
      "stateMutability": "payable",
      "type": "function"
    },
    {
      "constant": false,
      "inputs": [],
      "name": "acceptBet",
      "outputs": [],
      "payable": true,
      "stateMutability": "payable",
      "type": "function"
    },
    {
      "constant": false,
      "inputs": [],
      "name": "resolveBet",
      "outputs": [],
      "payable": true,
      "stateMutability": "payable",
      "type": "function"
    }
  ],
  "bytecode": "0x60806040527f800000000000000000000000000000000000000000000000000000000000000060055534801561003457600080fd5b506104db806100446000396000f3006080604052600436106100a4576000357c0100000000000000000000000000000000000000000000000000000000900463ffffffff16806330bfcb5f146100a957806335815b95146100b3578063561e91a1146100de57806359a5f12d146100e8578063653721471461013f5780638fced6261461016a5780639c52e6d514610174578063aa8c217c1461019f578063d30895e4146101ca578063f22a195e14610221575b600080fd5b6100b161024c565b005b3480156100bf57600080fd5b506100c86102a6565b6040518082815260200191505060405180910390f35b6100e66102ac565b005b3480156100f457600080fd5b506100fd61030e565b604051808273ffffffffffffffffffffffffffffffffffffffff1673ffffffffffffffffffffffffffffffffffffffff16815260200191505060405180910390f35b34801561014b57600080fd5b50610154610334565b6040518082815260200191505060405180910390f35b61017261033a565b005b34801561018057600080fd5b50610189610478565b6040518082815260200191505060405180910390f35b3480156101ab57600080fd5b506101b461047e565b6040518082815260200191505060405180910390f35b3480156101d657600080fd5b506101df610484565b604051808273ffffffffffffffffffffffffffffffffffffffff1673ffffffffffffffffffffffffffffffffffffffff16815260200191505060405180910390f35b34801561022d57600080fd5b506102366104a9565b6040518082815260200191505060405180910390f35b6002543414151561025c57600080fd5b33600160006101000a81548173ffffffffffffffffffffffffffffffffffffffff021916908373ffffffffffffffffffffffffffffffffffffffff16021790555043600381905550565b60055481565b600034101515156102bc57600080fd5b34600260008282540192505081905550336000806101000a81548173ffffffffffffffffffffffffffffffffffffffff021916908373ffffffffffffffffffffffffffffffffffffffff160217905550565b600160009054906101000a900473ffffffffffffffffffffffffffffffffffffffff1681565b60065481565b6000600281905550600354406001900460048190555060055460045481151561035f57fe5b04600681905550600060065414156103f5576000809054906101000a900473ffffffffffffffffffffffffffffffffffffffff1673ffffffffffffffffffffffffffffffffffffffff166108fc3073ffffffffffffffffffffffffffffffffffffffff16319081150290604051600060405180830381858888f193505050501580156103ef573d6000803e3d6000fd5b50610476565b600160009054906101000a900473ffffffffffffffffffffffffffffffffffffffff1673ffffffffffffffffffffffffffffffffffffffff166108fc3073ffffffffffffffffffffffffffffffffffffffff16319081150290604051600060405180830381858888f19350505050158015610474573d6000803e3d6000fd5b505b565b60035481565b60025481565b6000809054906101000a900473ffffffffffffffffffffffffffffffffffffffff1681565b600454815600a165627a7a723058205e620dc240833346c01e744d7855f7d611530127bb8264d3926416f90d93e79c0029",
  "source": "pragma solidity ^0.4.2;\n\n/*\n    todo\n    // random number: https://www.youtube.com/watch?v=dq-gBPvDgrc&list=PLV1JDFUtrXpFh85G-Ddyy2kLSafaB9biQ&index=10\n*/\n\ncontract Coinflip {\n\n    address public player1;\n    address public player2;\n\n    uint public amount;\n    uint public seedBlockNumber;\n    uint256 public blockHash;\n    uint256 public FACTOR = 57896044618658097711785492504343953926634992332820282019728792003956564819968;\n    uint256 public result;\n\n    function makeBet() public payable {\n        require(msg.value >= 0);\n        amount += msg.value;\n        player1 = msg.sender;\n    }\n\n    function acceptBet() public payable {\n        require(msg.value == amount);\n        player2 = msg.sender;\n        seedBlockNumber = block.number;\n    }\n\n    function resolveBet() public payable {\n        amount = 0;\n        blockHash = uint256(block.blockhash(seedBlockNumber));\n        result = blockHash / FACTOR;\n        if (result == 0) {\n            player1.transfer(address(this).balance);\n        }\n        else {\n            player2.transfer(address(this).balance);\n        }\n    }\n}\n",
  "sourcePath": "/Users/manuelannabring/projects/ethereum-basics/solution/02_Casino/contracts/Coinflip.sol",
  "compiler": {
    "name": "solc",
    "version": "0.4.24+commit.e67f0147.Emscripten.clang"
  },
  "schemaVersion": "2.0.1",
  "updatedAt": "2018-12-14T14:18:51.593Z"
}