{
  "contractName": "Coinflip",
  "abi": [
    {
      "constant": true,
      "inputs": [],
      "name": "FACTOR",
      "outputs": [
        {
          "name": "",
          "type": "uint256"
        }
      ],
      "payable": false,
      "stateMutability": "view",
      "type": "function"
    },
    {
      "constant": true,
      "inputs": [],
      "name": "player2",
      "outputs": [
        {
          "name": "",
          "type": "address"
        }
      ],
      "payable": false,
      "stateMutability": "view",
      "type": "function"
    },
    {
      "constant": true,
      "inputs": [],
      "name": "seedBlockNumber",
      "outputs": [
        {
          "name": "",
          "type": "uint256"
        }
      ],
      "payable": false,
      "stateMutability": "view",
      "type": "function"
    },
    {
      "constant": true,
      "inputs": [],
      "name": "amount",
      "outputs": [
        {
          "name": "",
          "type": "uint256"
        }
      ],
      "payable": false,
      "stateMutability": "view",
      "type": "function"
    },
    {
      "constant": true,
      "inputs": [],
      "name": "player1",
      "outputs": [
        {
          "name": "",
          "type": "address"
        }
      ],
      "payable": false,
      "stateMutability": "view",
      "type": "function"
    },
    {
      "constant": true,
      "inputs": [],
      "name": "blockHash",
      "outputs": [
        {
          "name": "",
          "type": "uint256"
        }
      ],
      "payable": false,
      "stateMutability": "view",
      "type": "function"
    },
    {
      "constant": false,
      "inputs": [],
      "name": "makeBet",
      "outputs": [],
      "payable": true,
      "stateMutability": "payable",
      "type": "function"
    },
    {
      "constant": false,
      "inputs": [],
      "name": "acceptBet",
      "outputs": [],
      "payable": true,
      "stateMutability": "payable",
      "type": "function"
    },
    {
      "constant": false,
      "inputs": [],
      "name": "resolveBet",
      "outputs": [],
      "payable": true,
      "stateMutability": "payable",
      "type": "function"
    }
  ],
  "bytecode": "0x60806040527f800000000000000000000000000000000000000000000000000000000000000060055534801561003457600080fd5b5061049b806100446000396000f300608060405260043610610099576000357c0100000000000000000000000000000000000000000000000000000000900463ffffffff16806330bfcb5f1461009e57806335815b95146100a8578063561e91a1146100d357806359a5f12d146100dd5780638fced626146101345780639c52e6d51461013e578063aa8c217c14610169578063d30895e414610194578063f22a195e146101eb575b600080fd5b6100a6610216565b005b3480156100b457600080fd5b506100bd610270565b6040518082815260200191505060405180910390f35b6100db610276565b005b3480156100e957600080fd5b506100f26102d8565b604051808273ffffffffffffffffffffffffffffffffffffffff1673ffffffffffffffffffffffffffffffffffffffff16815260200191505060405180910390f35b61013c6102fe565b005b34801561014a57600080fd5b50610153610438565b6040518082815260200191505060405180910390f35b34801561017557600080fd5b5061017e61043e565b6040518082815260200191505060405180910390f35b3480156101a057600080fd5b506101a9610444565b604051808273ffffffffffffffffffffffffffffffffffffffff1673ffffffffffffffffffffffffffffffffffffffff16815260200191505060405180910390f35b3480156101f757600080fd5b50610200610469565b6040518082815260200191505060405180910390f35b6002543414151561022657600080fd5b33600160006101000a81548173ffffffffffffffffffffffffffffffffffffffff021916908373ffffffffffffffffffffffffffffffffffffffff16021790555043600381905550565b60055481565b6000341015151561028657600080fd5b34600260008282540192505081905550336000806101000a81548173ffffffffffffffffffffffffffffffffffffffff021916908373ffffffffffffffffffffffffffffffffffffffff160217905550565b600160009054906101000a900473ffffffffffffffffffffffffffffffffffffffff1681565b600080600281905550600354406001900460048190555060055460045481151561032457fe5b04905060008114156103b4576000809054906101000a900473ffffffffffffffffffffffffffffffffffffffff1673ffffffffffffffffffffffffffffffffffffffff166108fc3073ffffffffffffffffffffffffffffffffffffffff16319081150290604051600060405180830381858888f193505050501580156103ae573d6000803e3d6000fd5b50610435565b600160009054906101000a900473ffffffffffffffffffffffffffffffffffffffff1673ffffffffffffffffffffffffffffffffffffffff166108fc3073ffffffffffffffffffffffffffffffffffffffff16319081150290604051600060405180830381858888f19350505050158015610433573d6000803e3d6000fd5b505b50565b60035481565b60025481565b6000809054906101000a900473ffffffffffffffffffffffffffffffffffffffff1681565b600454815600a165627a7a723058209b8487e9c2ed20d53f3056199c474036d359ea353f997fd7d7b994d4e65428070029",
  "source": "pragma solidity ^0.4.2;\n\n/*\n    TODO: add description\n    // random number: https://www.youtube.com/watch?v=dq-gBPvDgrc&list=PLV1JDFUtrXpFh85G-Ddyy2kLSafaB9biQ&index=10\n*/\n\ncontract Coinflip {\n\n    address public player1;\n    address public player2;\n\n    uint public amount;\n    \n    uint public seedBlockNumber;\n    uint public blockHash;\n    uint public FACTOR = (2 ** 256) / 2;\n\n    function makeBet() public payable {\n        require(msg.value >= 0);\n        amount += msg.value;\n        player1 = msg.sender;\n    }\n\n    function acceptBet() public payable {\n        require(msg.value == amount);\n        player2 = msg.sender;\n        seedBlockNumber = block.number;\n    }\n\n    function resolveBet() public payable {\n        amount = 0;\n        blockHash = uint(blockhash(seedBlockNumber));\n        uint _result = blockHash / FACTOR;\n        if (_result == 0) {\n            player1.transfer(address(this).balance);\n        }\n        else {\n            player2.transfer(address(this).balance);\n        }\n    }\n}\n",
  "sourcePath": "/Users/manuelannabring/projects/ethereum-basics/solution/02_Casino/contracts/Coinflip.sol",
  "compiler": {
    "name": "solc",
    "version": "0.4.24+commit.e67f0147.Emscripten.clang"
  },
  "schemaVersion": "2.0.1",
  "updatedAt": "2018-12-18T13:32:07.805Z"
}