{
  "contractName": "Coinflip",
  "abi": [
    {
      "constant": true,
      "inputs": [],
      "name": "FACTOR",
      "outputs": [
        {
          "name": "",
          "type": "uint256"
        }
      ],
      "payable": false,
      "stateMutability": "view",
      "type": "function"
    },
    {
      "constant": true,
      "inputs": [],
      "name": "stake",
      "outputs": [
        {
          "name": "",
          "type": "uint256"
        }
      ],
      "payable": false,
      "stateMutability": "view",
      "type": "function"
    },
    {
      "constant": true,
      "inputs": [],
      "name": "player2",
      "outputs": [
        {
          "name": "",
          "type": "address"
        }
      ],
      "payable": false,
      "stateMutability": "view",
      "type": "function"
    },
    {
      "constant": true,
      "inputs": [],
      "name": "seedBlockNumber",
      "outputs": [
        {
          "name": "",
          "type": "uint256"
        }
      ],
      "payable": false,
      "stateMutability": "view",
      "type": "function"
    },
    {
      "constant": true,
      "inputs": [],
      "name": "player1",
      "outputs": [
        {
          "name": "",
          "type": "address"
        }
      ],
      "payable": false,
      "stateMutability": "view",
      "type": "function"
    },
    {
      "constant": true,
      "inputs": [],
      "name": "blockHash",
      "outputs": [
        {
          "name": "",
          "type": "uint256"
        }
      ],
      "payable": false,
      "stateMutability": "view",
      "type": "function"
    },
    {
      "constant": false,
      "inputs": [],
      "name": "makeBet",
      "outputs": [],
      "payable": true,
      "stateMutability": "payable",
      "type": "function"
    },
    {
      "constant": false,
      "inputs": [],
      "name": "acceptBet",
      "outputs": [],
      "payable": true,
      "stateMutability": "payable",
      "type": "function"
    },
    {
      "constant": false,
      "inputs": [],
      "name": "resolveBet",
      "outputs": [],
      "payable": true,
      "stateMutability": "payable",
      "type": "function"
    }
  ],
  "bytecode": "0x60806040527f800000000000000000000000000000000000000000000000000000000000000060055534801561003457600080fd5b50610514806100446000396000f300608060405260043610610099576000357c0100000000000000000000000000000000000000000000000000000000900463ffffffff16806330bfcb5f1461009e57806335815b95146100a85780633a4b66f1146100d3578063561e91a1146100fe57806359a5f12d146101085780638fced6261461015f5780639c52e6d514610169578063d30895e414610194578063f22a195e146101eb575b600080fd5b6100a6610216565b005b3480156100b457600080fd5b506100bd610270565b6040518082815260200191505060405180910390f35b3480156100df57600080fd5b506100e8610276565b6040518082815260200191505060405180910390f35b61010661027c565b005b34801561011457600080fd5b5061011d6102d4565b604051808273ffffffffffffffffffffffffffffffffffffffff1673ffffffffffffffffffffffffffffffffffffffff16815260200191505060405180910390f35b6101676102fa565b005b34801561017557600080fd5b5061017e6104b7565b6040518082815260200191505060405180910390f35b3480156101a057600080fd5b506101a96104bd565b604051808273ffffffffffffffffffffffffffffffffffffffff1673ffffffffffffffffffffffffffffffffffffffff16815260200191505060405180910390f35b3480156101f757600080fd5b506102006104e2565b6040518082815260200191505060405180910390f35b6002543414151561022657600080fd5b33600160006101000a81548173ffffffffffffffffffffffffffffffffffffffff021916908373ffffffffffffffffffffffffffffffffffffffff16021790555043600381905550565b60055481565b60025481565b60003411151561028b57600080fd5b34600281905550336000806101000a81548173ffffffffffffffffffffffffffffffffffffffff021916908373ffffffffffffffffffffffffffffffffffffffff160217905550565b600160009054906101000a900473ffffffffffffffffffffffffffffffffffffffff1681565b600080600281905550600354406001900460048190555060055460045481151561032057fe5b04905060008114156103b0576000809054906101000a900473ffffffffffffffffffffffffffffffffffffffff1673ffffffffffffffffffffffffffffffffffffffff166108fc3073ffffffffffffffffffffffffffffffffffffffff16319081150290604051600060405180830381858888f193505050501580156103aa573d6000803e3d6000fd5b50610431565b600160009054906101000a900473ffffffffffffffffffffffffffffffffffffffff1673ffffffffffffffffffffffffffffffffffffffff166108fc3073ffffffffffffffffffffffffffffffffffffffff16319081150290604051600060405180830381858888f1935050505015801561042f573d6000803e3d6000fd5b505b60008060006101000a81548173ffffffffffffffffffffffffffffffffffffffff021916908373ffffffffffffffffffffffffffffffffffffffff1602179055506000600160006101000a81548173ffffffffffffffffffffffffffffffffffffffff021916908373ffffffffffffffffffffffffffffffffffffffff16021790555050565b60035481565b6000809054906101000a900473ffffffffffffffffffffffffffffffffffffffff1681565b600454815600a165627a7a72305820c834a459bc7385fa7400e5c5cda5a8f7942839a72a599826f68e7f22395c38f20029",
  "source": "pragma solidity ^0.4.2;\n\n/*\n    Now, that we know how to generate a random number it's time for an easy\n    coinflip game. Anyone can make a bet by sending ether to the contract.\n    Anyone can accept the bet by sending the same stake of ether to the\n    contract. When resolving the bet a random number between 0 and 1 determines\n    a winner and transfers the contract balance to the its account.\n\n    To make the random number more robust the block number is already saved\n    when the bet is accepted. This way, it's harder to influence the outcome\n    of the random number.\n*/\n\ncontract Coinflip {\n\n    address public player1;\n    address public player2;\n\n    uint public stake;\n\n    uint public seedBlockNumber;\n    uint public blockHash;\n    uint public FACTOR = (2 ** 256) / 2;\n\n    function makeBet() public payable {\n        require(msg.value > 0);\n        stake = msg.value;\n        player1 = msg.sender;\n    }\n\n    function acceptBet() public payable {\n        require(msg.value == stake);\n        player2 = msg.sender;\n        seedBlockNumber = block.number;\n    }\n\n    function resolveBet() public payable {\n        stake = 0;\n        blockHash = uint(blockhash(seedBlockNumber));\n        uint _result = blockHash / FACTOR;\n        if (_result == 0) {\n            player1.transfer(address(this).balance);\n        }\n        else {\n            player2.transfer(address(this).balance);\n        }\n        player1 = address(0);\n        player2 = address(0);\n    }\n}\n",
  "sourcePath": "/Users/manuelannabring/projects/ethereum-basics/solution/02_Casino/contracts/Coinflip.sol",
  "compiler": {
    "name": "solc",
    "version": "0.4.24+commit.e67f0147.Emscripten.clang"
  },
  "schemaVersion": "2.0.1",
  "updatedAt": "2019-01-08T14:39:44.545Z"
}