{
  "contractName": "Gambler",
  "abi": [
    {
      "constant": true,
      "inputs": [],
      "name": "value",
      "outputs": [
        {
          "name": "",
          "type": "uint256"
        }
      ],
      "payable": false,
      "stateMutability": "view",
      "type": "function"
    },
    {
      "constant": false,
      "inputs": [
        {
          "name": "_value",
          "type": "uint256"
        }
      ],
      "name": "setValue",
      "outputs": [],
      "payable": false,
      "stateMutability": "nonpayable",
      "type": "function"
    }
  ],
  "bytecode": "0x608060405234801561001057600080fd5b5060dc8061001f6000396000f3006080604052600436106049576000357c0100000000000000000000000000000000000000000000000000000000900463ffffffff1680633fa4f24514604e57806355241077146076575b600080fd5b348015605957600080fd5b50606060a0565b6040518082815260200191505060405180910390f35b348015608157600080fd5b50609e6004803603810190808035906020019092919050505060a6565b005b60005481565b80600081905550505600a165627a7a72305820d9d39132308e26124fde1c7b77f54a2743d5d78a7b4967390d18749d46340f510029",
  "source": "pragma solidity ^0.4.2;\n\ncontract Gambler {\n    uint public value;\n\n    function setValue(uint _value) public {\n        value = _value;\n    }\n}\n",
  "sourcePath": "/Users/manuelannabring/projects/ethereum-basics/gambling/contracts/Gambler.sol",
  "compiler": {
    "name": "solc",
    "version": "0.4.24+commit.e67f0147.Emscripten.clang"
  },
  "schemaVersion": "2.0.1",
  "updatedAt": "2018-11-23T14:22:14.581Z"
}