{
  "contractName": "Random",
  "abi": [
    {
      "constant": true,
      "inputs": [],
      "name": "randomNumber",
      "outputs": [
        {
          "name": "",
          "type": "uint256"
        }
      ],
      "payable": false,
      "stateMutability": "view",
      "type": "function"
    },
    {
      "constant": false,
      "inputs": [
        {
          "name": "_seed",
          "type": "uint256"
        },
        {
          "name": "_distribution",
          "type": "uint256"
        }
      ],
      "name": "generateRandomNumberWithSeed",
      "outputs": [],
      "payable": false,
      "stateMutability": "nonpayable",
      "type": "function"
    },
    {
      "constant": false,
      "inputs": [
        {
          "name": "_distribution",
          "type": "uint256"
        }
      ],
      "name": "generateRandomNumber",
      "outputs": [],
      "payable": false,
      "stateMutability": "nonpayable",
      "type": "function"
    }
  ],
  "bytecode": "0x608060405234801561001057600080fd5b506101c7806100206000396000f300608060405260043610610057576000357c0100000000000000000000000000000000000000000000000000000000900463ffffffff1680632a94d7031461005c5780634303707e14610093578063ccbac9f5146100c0575b600080fd5b34801561006857600080fd5b5061009160048036038101908080359060200190929190803590602001909291905050506100eb565b005b34801561009f57600080fd5b506100be6004803603810190808035906020019092919050505061013c565b005b3480156100cc57600080fd5b506100d5610195565b6040518082815260200191505060405180910390f35b6000808340600190049150827fffffffffffffffffffffffffffffffffffffffffffffffffffffffffffffffff81151561012157fe5b049050808281151561012f57fe5b0460008190555050505050565b60008060006001430392508240600190049150837fffffffffffffffffffffffffffffffffffffffffffffffffffffffffffffffff81151561017a57fe5b049050808281151561018857fe5b0460008190555050505050565b600054815600a165627a7a72305820b9584986591c155d9b54266879bcdcbd8297dbcec4134fb66ac64ccb79cb618f0029",
  "source": "pragma solidity ^0.4.2;\n\n/*\n    For every computer generated casino game we probably need some randomness.\n    Bad news: there is no out of the box random function. However, there are a\n    variety of approaches to generate randomness.\n\n    The following approach uses the block hash. This 64-bit string is randomly\n    calculated based on block information including the transactions that\n    are mined.\n\n    We can parse this hash into an unsigned integer with 256 bits and there\n    it is: the random block value between 0 and (2^256 - 1). But what if I only\n    want randomness between 0 and 1? Well, divide the random block value by\n    half of the maximum possible block value ((2^256 - 1) / 2). The result\n    will be 0 for all block values that are below half, and 1 for all block\n    values that are above half.\n\n    You can apply this for any distribution, e.g. divide by 17 for random\n    numbers between 0 and 16.\n\n    BE CAREFUL TO USE THIS IN PRODUCTION. MINERS MIGHT BE ABLE TO EXPLOIT THIS!\n*/\n\ncontract Random {\n\n    uint public randomNumber;\n\n    function generateRandomNumberWithSeed(uint _seed, uint _distribution) public {\n        // (!) Get the block hash of a given block number and parse it to uint\n        uint _blockValue = uint(blockhash(_seed));\n        // (!) Calculate the factor\n        uint _factor = (2 ** 256 - 1) / _distribution;\n        randomNumber = uint(_blockValue / _factor);\n    }\n\n    function generateRandomNumber(uint _distribution) public {\n        // (!) Get the block number of the latest mined block\n        uint _blockNumber = block.number - 1;\n        // (!) Get the block hash of a given block number and parse it to uint\n        uint _blockValue = uint(blockhash(_blockNumber));\n        // (!) Calculate the factor\n        uint _factor = (2 ** 256 - 1) / _distribution;\n        randomNumber = uint(_blockValue / _factor);\n    }\n\n}\n",
  "sourcePath": "/Users/manuelannabring/projects/ethereum-basics/solution/02_Casino/contracts/Random.sol",
  "compiler": {
    "name": "solc",
    "version": "0.4.24+commit.e67f0147.Emscripten.clang"
  },
  "schemaVersion": "2.0.1",
  "updatedAt": "2019-01-08T14:39:19.870Z"
}