{
  "contractName": "Random",
  "abi": [
    {
      "constant": true,
      "inputs": [],
      "name": "random256",
      "outputs": [
        {
          "name": "",
          "type": "uint256"
        }
      ],
      "payable": false,
      "stateMutability": "view",
      "type": "function"
    },
    {
      "constant": true,
      "inputs": [],
      "name": "random2",
      "outputs": [
        {
          "name": "",
          "type": "uint256"
        }
      ],
      "payable": false,
      "stateMutability": "view",
      "type": "function"
    },
    {
      "constant": true,
      "inputs": [],
      "name": "random4",
      "outputs": [
        {
          "name": "",
          "type": "uint256"
        }
      ],
      "payable": false,
      "stateMutability": "view",
      "type": "function"
    },
    {
      "constant": false,
      "inputs": [
        {
          "name": "_blockNumber",
          "type": "uint256"
        }
      ],
      "name": "rand2",
      "outputs": [],
      "payable": false,
      "stateMutability": "nonpayable",
      "type": "function"
    },
    {
      "constant": false,
      "inputs": [
        {
          "name": "_blockNumber",
          "type": "uint256"
        }
      ],
      "name": "rand4",
      "outputs": [],
      "payable": false,
      "stateMutability": "nonpayable",
      "type": "function"
    },
    {
      "constant": false,
      "inputs": [
        {
          "name": "_blockNumber",
          "type": "uint256"
        }
      ],
      "name": "rand256",
      "outputs": [],
      "payable": false,
      "stateMutability": "nonpayable",
      "type": "function"
    },
    {
      "constant": true,
      "inputs": [],
      "name": "getBlockNumber",
      "outputs": [
        {
          "name": "",
          "type": "uint256"
        }
      ],
      "payable": false,
      "stateMutability": "view",
      "type": "function"
    }
  ],
  "bytecode": "0x608060405234801561001057600080fd5b506102d0806100206000396000f300608060405260043610610083576000357c0100000000000000000000000000000000000000000000000000000000900463ffffffff16806330ee73921461008857806342cbb15c146100b55780639a628121146100e0578063c5337ed41461010b578063ceb8d77a14610136578063dc4beb1114610163578063e8ddf76e14610190575b600080fd5b34801561009457600080fd5b506100b3600480360381019080803590602001909291905050506101bb565b005b3480156100c157600080fd5b506100ca610200565b6040518082815260200191505060405180910390f35b3480156100ec57600080fd5b506100f5610208565b6040518082815260200191505060405180910390f35b34801561011757600080fd5b5061012061020e565b6040518082815260200191505060405180910390f35b34801561014257600080fd5b5061016160048036038101908080359060200190929190505050610214565b005b34801561016f57600080fd5b5061018e60048036038101908080359060200190929190505050610259565b005b34801561019c57600080fd5b506101a561029e565b6040518082815260200191505060405180910390f35b60008082406001900491507f0100000000000000000000000000000000000000000000000000000000000000905080828115156101f457fe5b04600281905550505050565b600043905090565b60025481565b60005481565b60008082406001900491507f80000000000000000000000000000000000000000000000000000000000000009050808281151561024d57fe5b04600081905550505050565b60008082406001900491507f40000000000000000000000000000000000000000000000000000000000000009050808281151561029257fe5b04600181905550505050565b600154815600a165627a7a723058203a3aa2dcc88ee49d78d50420447e01d29545977231494cacb6e40dde4712ce5d0029",
  "source": "pragma solidity ^0.4.2;\n\ncontract Random {\n\n    // Random number between 0 and 1\n    uint public random2;\n    // Random number between 0 and 3\n    uint public random4;\n    // Random number between 0 and 255\n    uint public random256;\n\n    function rand2(uint _blockNumber) public {\n        uint _blockValue = uint(blockhash(_blockNumber)); // parse blockhash string into uint256\n        uint _factor = (2 ** 256) / 2;\n        random2 = uint(_blockValue / _factor);\n    }\n\n    function rand4(uint _blockNumber) public {\n        uint _blockValue = uint(blockhash(_blockNumber)); // parse blockhash string into uint256\n        uint _factor = (2 ** 256) / 4;\n        random4 = uint(_blockValue / _factor);\n    }\n\n    // ... 8, 16, 32, 64, 128 ...\n\n    function rand256(uint _blockNumber) public {\n        uint _blockValue = uint(blockhash(_blockNumber)); // parse blockhash string into uint256\n        uint _factor = (2 ** 256) / 256;\n        random256 = uint(_blockValue / _factor);\n    }\n\n    function getBlockNumber() public view returns (uint) {\n        return block.number;\n    }\n\n}\n",
  "sourcePath": "/Users/manuelannabring/projects/ethereum-basics/solution/02_Casino/contracts/Random.sol",
  "compiler": {
    "name": "solc",
    "version": "0.4.24+commit.e67f0147.Emscripten.clang"
  },
  "schemaVersion": "2.0.1",
  "updatedAt": "2018-12-14T14:18:51.596Z"
}